{
  "_format": "hh-sol-artifact-1",
  "contractName": "FixIt",
  "sourceName": "contracts/FixIt.sol",
  "abi": [
    {
      "anonymous": false,
      "inputs": [
        {
          "indexed": true,
          "internalType": "uint256",
          "name": "issueId",
          "type": "uint256"
        },
        {
          "indexed": true,
          "internalType": "address",
          "name": "creator",
          "type": "address"
        },
        {
          "indexed": false,
          "internalType": "string",
          "name": "title",
          "type": "string"
        }
      ],
      "name": "IssueCreated",
      "type": "event"
    },
    {
      "inputs": [
        {
          "internalType": "string",
          "name": "_title",
          "type": "string"
        },
        {
          "internalType": "string",
          "name": "_description",
          "type": "string"
        },
        {
          "internalType": "string",
          "name": "_location",
          "type": "string"
        },
        {
          "internalType": "string",
          "name": "_ipfsHash",
          "type": "string"
        }
      ],
      "name": "createIssue",
      "outputs": [],
      "stateMutability": "nonpayable",
      "type": "function"
    },
    {
      "inputs": [],
      "name": "issueCounter",
      "outputs": [
        {
          "internalType": "uint256",
          "name": "",
          "type": "uint256"
        }
      ],
      "stateMutability": "view",
      "type": "function"
    },
    {
      "inputs": [
        {
          "internalType": "uint256",
          "name": "",
          "type": "uint256"
        }
      ],
      "name": "issues",
      "outputs": [
        {
          "internalType": "uint256",
          "name": "issueId",
          "type": "uint256"
        },
        {
          "internalType": "address",
          "name": "creator",
          "type": "address"
        },
        {
          "internalType": "string",
          "name": "title",
          "type": "string"
        },
        {
          "internalType": "string",
          "name": "description",
          "type": "string"
        },
        {
          "internalType": "string",
          "name": "location",
          "type": "string"
        },
        {
          "internalType": "bool",
          "name": "isResolved",
          "type": "bool"
        },
        {
          "internalType": "string",
          "name": "ipfsHash",
          "type": "string"
        }
      ],
      "stateMutability": "view",
      "type": "function"
    },
    {
      "inputs": [
        {
          "internalType": "uint256",
          "name": "_issueId",
          "type": "uint256"
        }
      ],
      "name": "markAsResolved",
      "outputs": [],
      "stateMutability": "nonpayable",
      "type": "function"
    }
  ],
  "bytecode": "0x608060405234801561001057600080fd5b50610e46806100206000396000f3fe608060405234801561001057600080fd5b506004361061004c5760003560e01c806304e15de5146100515780632d6fafc114610087578063bc9f07d6146100a3578063f7cb5912146100c1575b600080fd5b61006b6004803603810190610066919061062d565b6100dd565b60405161007e9796959493929190610755565b60405180910390f35b6100a1600480360381019061009c9190610915565b61036c565b005b6100ab610509565b6040516100b891906109ec565b60405180910390f35b6100db60048036038101906100d6919061062d565b61050f565b005b60006020528060005260406000206000915090508060000154908060010160009054906101000a900473ffffffffffffffffffffffffffffffffffffffff169080600201805461012c90610a36565b80601f016020809104026020016040519081016040528092919081815260200182805461015890610a36565b80156101a55780601f1061017a576101008083540402835291602001916101a5565b820191906000526020600020905b81548152906001019060200180831161018857829003601f168201915b5050505050908060030180546101ba90610a36565b80601f01602080910402602001604051908101604052809291908181526020018280546101e690610a36565b80156102335780601f1061020857610100808354040283529160200191610233565b820191906000526020600020905b81548152906001019060200180831161021657829003601f168201915b50505050509080600401805461024890610a36565b80601f016020809104026020016040519081016040528092919081815260200182805461027490610a36565b80156102c15780601f10610296576101008083540402835291602001916102c1565b820191906000526020600020905b8154815290600101906020018083116102a457829003601f168201915b5050505050908060050160009054906101000a900460ff16908060060180546102e990610a36565b80601f016020809104026020016040519081016040528092919081815260200182805461031590610a36565b80156103625780601f1061033757610100808354040283529160200191610362565b820191906000526020600020905b81548152906001019060200180831161034557829003601f168201915b5050505050905087565b6001600081548092919061037f90610a96565b91905055506040518060e0016040528060015481526020013373ffffffffffffffffffffffffffffffffffffffff1681526020018581526020018481526020018381526020016000151581526020018281525060008060015481526020019081526020016000206000820151816000015560208201518160010160006101000a81548173ffffffffffffffffffffffffffffffffffffffff021916908373ffffffffffffffffffffffffffffffffffffffff160217905550604082015181600201908161044c9190610c8a565b5060608201518160030190816104629190610c8a565b5060808201518160040190816104789190610c8a565b5060a08201518160050160006101000a81548160ff02191690831515021790555060c08201518160060190816104ae9190610c8a565b509050503373ffffffffffffffffffffffffffffffffffffffff166001547f2185ff5315bffa213e6ab81c8cf712b11c0dd48854e706f81fa8c20d577b591f866040516104fb9190610d5c565b60405180910390a350505050565b60015481565b3373ffffffffffffffffffffffffffffffffffffffff1660008083815260200190815260200160002060010160009054906101000a900473ffffffffffffffffffffffffffffffffffffffff1673ffffffffffffffffffffffffffffffffffffffff16146105b2576040517f08c379a00000000000000000000000000000000000000000000000000000000081526004016105a990610df0565b60405180910390fd5b600160008083815260200190815260200160002060050160006101000a81548160ff02191690831515021790555050565b6000604051905090565b600080fd5b600080fd5b6000819050919050565b61060a816105f7565b811461061557600080fd5b50565b60008135905061062781610601565b92915050565b600060208284031215610643576106426105ed565b5b600061065184828501610618565b91505092915050565b610663816105f7565b82525050565b600073ffffffffffffffffffffffffffffffffffffffff82169050919050565b600061069482610669565b9050919050565b6106a481610689565b82525050565b600081519050919050565b600082825260208201905092915050565b60005b838110156106e45780820151818401526020810190506106c9565b60008484015250505050565b6000601f19601f8301169050919050565b600061070c826106aa565b61071681856106b5565b93506107268185602086016106c6565b61072f816106f0565b840191505092915050565b60008115159050919050565b61074f8161073a565b82525050565b600060e08201905061076a600083018a61065a565b610777602083018961069b565b81810360408301526107898188610701565b9050818103606083015261079d8187610701565b905081810360808301526107b18186610701565b90506107c060a0830185610746565b81810360c08301526107d28184610701565b905098975050505050505050565b600080fd5b600080fd5b7f4e487b7100000000000000000000000000000000000000000000000000000000600052604160045260246000fd5b610822826106f0565b810181811067ffffffffffffffff82111715610841576108406107ea565b5b80604052505050565b60006108546105e3565b90506108608282610819565b919050565b600067ffffffffffffffff8211156108805761087f6107ea565b5b610889826106f0565b9050602081019050919050565b82818337600083830152505050565b60006108b86108b384610865565b61084a565b9050828152602081018484840111156108d4576108d36107e5565b5b6108df848285610896565b509392505050565b600082601f8301126108fc576108fb6107e0565b5b813561090c8482602086016108a5565b91505092915050565b6000806000806080858703121561092f5761092e6105ed565b5b600085013567ffffffffffffffff81111561094d5761094c6105f2565b5b610959878288016108e7565b945050602085013567ffffffffffffffff81111561097a576109796105f2565b5b610986878288016108e7565b935050604085013567ffffffffffffffff8111156109a7576109a66105f2565b5b6109b3878288016108e7565b925050606085013567ffffffffffffffff8111156109d4576109d36105f2565b5b6109e0878288016108e7565b91505092959194509250565b6000602082019050610a01600083018461065a565b92915050565b7f4e487b7100000000000000000000000000000000000000000000000000000000600052602260045260246000fd5b60006002820490506001821680610a4e57607f821691505b602082108103610a6157610a60610a07565b5b50919050565b7f4e487b7100000000000000000000000000000000000000000000000000000000600052601160045260246000fd5b6000610aa1826105f7565b91507fffffffffffffffffffffffffffffffffffffffffffffffffffffffffffffffff8203610ad357610ad2610a67565b5b600182019050919050565b60008190508160005260206000209050919050565b60006020601f8301049050919050565b600082821b905092915050565b600060088302610b407fffffffffffffffffffffffffffffffffffffffffffffffffffffffffffffffff82610b03565b610b4a8683610b03565b95508019841693508086168417925050509392505050565b6000819050919050565b6000610b87610b82610b7d846105f7565b610b62565b6105f7565b9050919050565b6000819050919050565b610ba183610b6c565b610bb5610bad82610b8e565b848454610b10565b825550505050565b600090565b610bca610bbd565b610bd5818484610b98565b505050565b5b81811015610bf957610bee600082610bc2565b600181019050610bdb565b5050565b601f821115610c3e57610c0f81610ade565b610c1884610af3565b81016020851015610c27578190505b610c3b610c3385610af3565b830182610bda565b50505b505050565b600082821c905092915050565b6000610c6160001984600802610c43565b1980831691505092915050565b6000610c7a8383610c50565b9150826002028217905092915050565b610c93826106aa565b67ffffffffffffffff811115610cac57610cab6107ea565b5b610cb68254610a36565b610cc1828285610bfd565b600060209050601f831160018114610cf45760008415610ce2578287015190505b610cec8582610c6e565b865550610d54565b601f198416610d0286610ade565b60005b82811015610d2a57848901518255600182019150602085019450602081019050610d05565b86831015610d475784890151610d43601f891682610c50565b8355505b6001600288020188555050505b505050505050565b60006020820190508181036000830152610d768184610701565b905092915050565b7f4f6e6c79207468652063726561746f722063616e206d61726b2074686520697360008201527f737565206173207265736f6c7665640000000000000000000000000000000000602082015250565b6000610dda602f836106b5565b9150610de582610d7e565b604082019050919050565b60006020820190508181036000830152610e0981610dcd565b905091905056fea26469706673582212203b3d1199ca2481bb163c45b1e4df040bd2edd25d178cc3bfa64ff06a44c1cb6a64736f6c63430008130033",
  "linkReferences": {},
  "deployedLinkReferences": {}
}